{
  "transactions": [
    {
      "hash": "0xd214adcbd4dab52268c48f7d056752214b154e48a309ea6070407fe18f088400",
      "transactionType": "CALL",
      "contractName": "HelperConfig",
      "contractAddress": "0x5aadfb43ef8daf45dd80f4676345b7676f1d70e3",
      "function": "getConfig()",
      "arguments": [],
      "transaction": {
        "from": "0x48caade36c64a1e91715328b1cdebee3057c360c",
        "to": "0x5aadfb43ef8daf45dd80f4676345b7676f1d70e3",
        "gas": "0xde3d",
        "value": "0x0",
        "input": "0xc3f909d4",
        "nonce": "0xb",
        "chainId": "0xa4b1"
      },
      "additionalContracts": [],
      "isFixedGasLimit": false
    },
    {
      "hash": "0x8d966a2a4b6bf0d447bba5ed16439b2c6f4889717ac7521a499d847afdfc4259",
      "transactionType": "CALL",
      "contractName": "HelperConfig",
      "contractAddress": "0x5aadfb43ef8daf45dd80f4676345b7676f1d70e3",
      "function": "getConfig()",
      "arguments": [],
      "transaction": {
        "from": "0x48caade36c64a1e91715328b1cdebee3057c360c",
        "to": "0x5aadfb43ef8daf45dd80f4676345b7676f1d70e3",
        "gas": "0xde3d",
        "value": "0x0",
        "input": "0xc3f909d4",
        "nonce": "0xc",
        "chainId": "0xa4b1"
      },
      "additionalContracts": [],
      "isFixedGasLimit": false
    },
    {
      "hash": "0x3afb2da5a97ecd77ce0bbfb0501d2207e6b2e37d070c29a9f4219a52b94acb24",
      "transactionType": "CALL",
      "contractName": "EntryPoint",
      "contractAddress": "0x0000000071727de22e5e9d8baf0edac6f37da032",
      "function": "handleOps((address,uint256,bytes,bytes,bytes32,uint256,bytes32,bytes,bytes)[],address)",
      "arguments": [
        "[(0xB5ad3b6230cE3F7963C1033A337b8507E8006B9f, 0, 0x, 0xb61d27f6000000000000000000000000af88d065e77c8cc2239327c5edb3a432268e5831000000000000000000000000000000000000000000000000000000000000000000000000000000000000000000000000000000000000000000000000000000600000000000000000000000000000000000000000000000000000000000000044095ea7b300000000000000000000000068b3465833fb72a70ecdf485e0e4c7bd8665fc450000000000000000000000000000000000000000000000000de0b6b3a764000000000000000000000000000000000000000000000000000000000000, 0x0000000000000000000000000100000000000000000000000000000001000000, 16777216, 0x0000000000000000000000000000010000000000000000000000000000000100, 0x, 0x0d2cf625a6bf2e8c537cb64f57eb8009ee014ab8845d42437f84ac0c56e51b061773bb9a7953672e7d751115ba7b0da6b99d82b555053eb88f3f3ac45947d6c81b)]",
        "0x48CaaDe36c64A1e91715328B1cdeBee3057c360c"
      ],
      "transaction": {
        "from": "0x48caade36c64a1e91715328b1cdebee3057c360c",
        "to": "0x0000000071727de22e5e9d8baf0edac6f37da032",
        "gas": "0x15cdaf4",
        "value": "0x0",
        "input": "0x765e827f000000000000000000000000000000000000000000000000000000000000004000000000000000000000000048caade36c64a1e91715328b1cdebee3057c360c00000000000000000000000000000000000000000000000000000000000000010000000000000000000000000000000000000000000000000000000000000020000000000000000000000000b5ad3b6230ce3f7963c1033a337b8507e8006b9f00000000000000000000000000000000000000000000000000000000000000000000000000000000000000000000000000000000000000000000000000000120000000000000000000000000000000000000000000000000000000000000014000000000000000000000000001000000000000000000000000000000010000000000000000000000000000000000000000000000000000000000000001000000000000000000000000000000000001000000000000000000000000000000010000000000000000000000000000000000000000000000000000000000000002600000000000000000000000000000000000000000000000000000000000000280000000000000000000000000000000000000000000000000000000000000000000000000000000000000000000000000000000000000000000000000000000e4b61d27f6000000000000000000000000af88d065e77c8cc2239327c5edb3a432268e5831000000000000000000000000000000000000000000000000000000000000000000000000000000000000000000000000000000000000000000000000000000600000000000000000000000000000000000000000000000000000000000000044095ea7b300000000000000000000000068b3465833fb72a70ecdf485e0e4c7bd8665fc450000000000000000000000000000000000000000000000000de0b6b3a76400000000000000000000000000000000000000000000000000000000000000000000000000000000000000000000000000000000000000000000000000000000000000000000000000000000000000000000000000000000000000000000000000000000000000000000000000000000000000000000000000410d2cf625a6bf2e8c537cb64f57eb8009ee014ab8845d42437f84ac0c56e51b061773bb9a7953672e7d751115ba7b0da6b99d82b555053eb88f3f3ac45947d6c81b00000000000000000000000000000000000000000000000000000000000000",
        "nonce": "0xd",
        "chainId": "0xa4b1"
      },
      "additionalContracts": [],
      "isFixedGasLimit": false
    }
  ],
  "receipts": [
    {
      "status": "0x1",
      "cumulativeGasUsed": "0xa1b6b",
      "logs": [],
      "logsBloom": "0x00000000000000000000000000000000000000000000000000000000000000000000000000000000000000000000000000000000000000000000000000000000000000000000000000000000000000000000000000000000000000000000000000000000000000000000000000000000000000000000000000000000000000000000000000000000000000000000000000000000000000000000000000000000000000000000000000000000000000000000000000000000000000000000000000000000000000000000000000000000000000000000000000000000000000000000000000000000000000000000000000000000000000000000000000000000",
      "type": "0x2",
      "transactionHash": "0xd214adcbd4dab52268c48f7d056752214b154e48a309ea6070407fe18f088400",
      "transactionIndex": "0x4",
      "blockHash": "0x8e7418b0ba18422a83c2386126b55f607f4617128d11558dfb766132390f7bb0",
      "blockNumber": "0x119a5641",
      "gasUsed": "0x901d",
      "effectiveGasPrice": "0x989680",
      "from": "0x48caade36c64a1e91715328b1cdebee3057c360c",
      "to": "0x5aadfb43ef8daf45dd80f4676345b7676f1d70e3",
      "contractAddress": null,
      "gasUsedForL1": "0x3dd5",
      "l1BlockNumber": "0x149ef33"
    },
    {
      "status": "0x1",
      "cumulativeGasUsed": "0x7f22d",
      "logs": [],
      "logsBloom": "0x00000000000000000000000000000000000000000000000000000000000000000000000000000000000000000000000000000000000000000000000000000000000000000000000000000000000000000000000000000000000000000000000000000000000000000000000000000000000000000000000000000000000000000000000000000000000000000000000000000000000000000000000000000000000000000000000000000000000000000000000000000000000000000000000000000000000000000000000000000000000000000000000000000000000000000000000000000000000000000000000000000000000000000000000000000000",
      "type": "0x2",
      "transactionHash": "0x8d966a2a4b6bf0d447bba5ed16439b2c6f4889717ac7521a499d847afdfc4259",
      "transactionIndex": "0x2",
      "blockHash": "0xd911f71c8716e96990e92e2bc0a9161b92bcf33fcee5c27bdf84930e89db7c19",
      "blockNumber": "0x119a564c",
      "gasUsed": "0x901d",
      "effectiveGasPrice": "0x989680",
      "from": "0x48caade36c64a1e91715328b1cdebee3057c360c",
      "to": "0x5aadfb43ef8daf45dd80f4676345b7676f1d70e3",
      "contractAddress": null,
      "gasUsedForL1": "0x3dd5",
      "l1BlockNumber": "0x149ef33"
    },
    {
      "status": "0x1",
      "cumulativeGasUsed": "0x5786f",
      "logs": [
        {
          "address": "0x0000000071727de22e5e9d8baf0edac6f37da032",
          "topics": [
            "0x2da466a7b24304f47e87fa2e1e5a81b9831ce54fec19055ce277ca2f39ba42c4",
            "0x000000000000000000000000b5ad3b6230ce3f7963c1033a337b8507e8006b9f"
          ],
          "data": "0x0000000000000000000000000000000000000000000000000000000300000000",
          "blockHash": "0x0f2c2dd0a2c1d349ec43747f7ce2ffaddb8e1e6c831c8310465c7b68fcba38a8",
          "blockNumber": "0x119a5653",
          "transactionHash": "0x3afb2da5a97ecd77ce0bbfb0501d2207e6b2e37d070c29a9f4219a52b94acb24",
          "transactionIndex": "0x3",
          "logIndex": "0x2",
          "removed": false
        },
        {
          "address": "0x0000000071727de22e5e9d8baf0edac6f37da032",
          "topics": [
            "0xbb47ee3e183a558b1a2ff0874b079f3fc5478b7454eacf2bfc5af2ff5878f972"
          ],
          "data": "0x",
          "blockHash": "0x0f2c2dd0a2c1d349ec43747f7ce2ffaddb8e1e6c831c8310465c7b68fcba38a8",
          "blockNumber": "0x119a5653",
          "transactionHash": "0x3afb2da5a97ecd77ce0bbfb0501d2207e6b2e37d070c29a9f4219a52b94acb24",
          "transactionIndex": "0x3",
          "logIndex": "0x3",
          "removed": false
        },
        {
          "address": "0xaf88d065e77c8cc2239327c5edb3a432268e5831",
          "topics": [
            "0x8c5be1e5ebec7d5bd14f71427d1e84f3dd0314c0f7b2291e5b200ac8c7c3b925",
            "0x000000000000000000000000b5ad3b6230ce3f7963c1033a337b8507e8006b9f",
            "0x00000000000000000000000068b3465833fb72a70ecdf485e0e4c7bd8665fc45"
          ],
          "data": "0x0000000000000000000000000000000000000000000000000de0b6b3a7640000",
          "blockHash": "0x0f2c2dd0a2c1d349ec43747f7ce2ffaddb8e1e6c831c8310465c7b68fcba38a8",
          "blockNumber": "0x119a5653",
          "transactionHash": "0x3afb2da5a97ecd77ce0bbfb0501d2207e6b2e37d070c29a9f4219a52b94acb24",
          "transactionIndex": "0x3",
          "logIndex": "0x4",
          "removed": false
        },
        {
          "address": "0x0000000071727de22e5e9d8baf0edac6f37da032",
          "topics": [
            "0x49628fd1471006c1482da88028e9ce4dbb080b815c9b0344d39e5a8e6ec1419f",
            "0x5f417ef8866b520414fd966292dace424157d880a6e871af4333e71284d9cda9",
            "0x000000000000000000000000b5ad3b6230ce3f7963c1033a337b8507e8006b9f",
            "0x0000000000000000000000000000000000000000000000000000000000000000"
          ],
          "data": "0x00000000000000000000000000000000000000000000000000000000000000000000000000000000000000000000000000000000000000000000000000000001000000000000000000000000000000000000000000000000000000011b25610000000000000000000000000000000000000000000000000000000000011b2561",
          "blockHash": "0x0f2c2dd0a2c1d349ec43747f7ce2ffaddb8e1e6c831c8310465c7b68fcba38a8",
          "blockNumber": "0x119a5653",
          "transactionHash": "0x3afb2da5a97ecd77ce0bbfb0501d2207e6b2e37d070c29a9f4219a52b94acb24",
          "transactionIndex": "0x3",
          "logIndex": "0x5",
          "removed": false
        }
      ],
      "logsBloom": "0x00000000000000000000000000000000000000000000000000000000000000000008000000000000000000010000000004000001000000000000020000200000000000000000000000000000001000000040000000000000000000000000200000000000020800000000000000000800000000000000000000000000000200000000000000000000000800000000000020002000000000000000000000000000020000000000000000400000000000000000000000000000000002000000000002002000000000400001000000000000000000000000000000000100000020000050000000000000000000000000280000010000000000000000000000000000",
      "type": "0x2",
      "transactionHash": "0x3afb2da5a97ecd77ce0bbfb0501d2207e6b2e37d070c29a9f4219a52b94acb24",
      "transactionIndex": "0x3",
      "blockHash": "0x0f2c2dd0a2c1d349ec43747f7ce2ffaddb8e1e6c831c8310465c7b68fcba38a8",
      "blockNumber": "0x119a5653",
      "gasUsed": "0x34db3",
      "effectiveGasPrice": "0x989680",
      "from": "0x48caade36c64a1e91715328b1cdebee3057c360c",
      "to": "0x0000000071727de22e5e9d8baf0edac6f37da032",
      "contractAddress": null,
      "gasUsedForL1": "0x10079",
      "l1BlockNumber": "0x149ef33"
    }
  ],
  "libraries": [],
  "pending": [],
  "returns": {},
  "timestamp": 1736855959,
  "chain": 42161,
  "commit": "5069eff"
}